:020000040000FA
:030000000200D724
:030033000204754F
:03006B000203C2CB
:03007B0002041567
:100083000204C600000080FBE490020078BE790100
:100093008002F0A3D8FCD9FA7ABD7B0290010778DD
:1000A3000E79018015E493A3AD82AE838A828B839C
:1000B300F0A3AA82AB838D828E83D8E9D9E77582B8
:1000C3009175830974001200E97582867583007443
:1000D300001200E975D0007581BF750E00750F021F
:1000E300759F0002008BC09FF59FE473D09F22D0C1
:1000F30083D082C09FE493C0E0740193C0E0740294
:1001030093F59F22FF0000000000000000000000A4
:10011300491200F2FE04001200F2F005001200F290
:100123007B06001200F28606001200F2FB060012A4
:1001330000F2510A001200F2840A001200F2F20ADD
:10014300001200F22809001200F26809001200F2FE
:100153001D0B001200F2220B001200F20B0700121B
:1001630000F22007001200F23207001200F25207D9
:10017300001200F2B407001200F2E207001200F2CC
:10018300F509001200F2230A001200F2AC08001273
:1001930000F2D408001200F20109001200F2F10784
:1001A300001200F21808001200F22C08001200F2EC
:1001B3003C08001200F24608001200F25008001238
:1001C30000F26908001200F27208001200F28308BC
:1001D300001200F29408001200F2130B001200F256
:1001E300AC0A00CAC0E0E6F0A308DAFAD0E0FA22CB
:1001F300700422600D18C6C333C608C633C6D5E0E3
:10020300F4182200C0D0250E10AF08F50E500C05CF
:100213000F8008F50E5002050FD2AFD0D022250E65
:10022300F58210AF08F50E400C150F8008F50E404F
:1002330002150FD2AF850F8322250EF582E4350F09
:10024300F58322E473250EC582C0E0E50F34FFC5B4
:1002530083C0E0E50EC3958224F810AF0885830FB1
:1002630085820E800885830F85820ED2AFCEF0A3E0
:10027300E520F0A37808E608F0A3DEFAEFF0A3E5A3
:100283008124FAF8E608F0A3E608F0A3E608F0A351
:100293000808E608F0A3E608F0A315811581D0E06D
:1002A300FED0E0F8158115811581E8C0E0EEC0E0CD
:1002B30022850F83850E82E0A3FEE0A3F520780854
:1002C300E0A3F608DFFAE0A3FFE0A3C0E0E0A3C0E9
:1002D300E0E0A3C0E0E0A3C0E0E0A3C0E010AF080B
:1002E30085820E85830F800885820E85830FD2AFAA
:1002F300D083D0820200EFC0D0250EC582C0E0E5D6
:100303000F34FFC583C0E0E50EC3958224F310AF1D
:100313000885830F85820E800885830F85820ED220
:10032300AFC8F0A3E9F0A3EAF0A3EBF0A37908E7E1
:1003330009F0A3D8FAECF0A3EDF0A3EEF0A3EFF0ED
:10034300A3D0E0F0A3D0E0F0A3D0E0F0A3E520F049
:10035300A3E5F0F0A322850F83850E82E0C0E0A31E
:10036300E0F9A3E0FAA3E0FBA37808E0F608A3DF33
:10037300FAE0FCA3E0FDA3E0FEA3E0FFA3E0C0E0FE
:10038300A3E0C0E0A3E0F5D0A3E0F520A3E0A3F54C
:10039300F010AF0885830F85820E800885830F8553
:1003A300820ED2AFD082D083D0E0F8D0E032740294
:1003B3008000C0E0F404120221D0E01201E622C062
:1003C300E074F11202FAC2C5E58960337E00750854
:1003D30001750900EE78081201F3E508FFE5895F6E
:1003E3006016120407F9E849600A120407F58388C6
:1003F30082120246EFF452890EEEC3940840CF7F77
:1004030002020359120465748928F58274021204E6
:100413006D22C0E074F11202FAC2EBE58A60337E0A
:1004230000750801750900EE78081201F3E508FF6D
:10043300E58A5F6016120457F9E849600A12045707
:10044300F5838882120246EFF4528A0EEEC39408B3
:1004530040CF80AB120465749928F58274021204AC
:100463006D22EE25E0F8E433F92239F583E0F8A3B1
:10047300E022C0E074F11202FAC2E8E58B60337E39
:1004830000750801750900EE78081201F3E508FF0D
:10049300E58B5F60161204B8F9E849600A1204B8E4
:1004A300F5838882120246EFF4528B0EEEC3940555
:1004B30040CF02040212046574A928F58274021263
:1004C300046D22C0E074F21202FAA2AFE433FEC25A
:1004D300AFE5E9A2E6501A9002B4E0F8A3E0F9E828
:1004E300496008E0F5838882120246759B0053E950
:1004F300BFEEA2E092AF7F01020359C082C0831214
:1005030001C812015079017A097B021201BC9002E1
:1005130009E0C2E7F06405703579051205DA500485
:10052300D2F08002C2F0A2F0E4339002C5F0900250
:100533000EE0A2E740030205D290020CE0F890021D
:1005430000E06860030205D2A374010205D1E02430
:10055300F59002C2F0900209E0F91205DA5004D2D4
:10056300F08002C2F0A2F0E4339002C5F0900211D1
:10057300E0F8A3E0F99002BEE8F0A3E9F09002C32B
:100583007413F0A37402F09002C2E0F83395E0F91B
:10059300741328F8740239F98882F583E09002C64F
:1005A300F088828983A3E0A2E7501C9002BDE0F8A3
:1005B30090020CE068601090020AE054DF6441701E
:1005C300069002C77401F090020CE09002BDF01295
:1005D30001561201CE800F7A0A7B021201BC9002EF
:1005E3000AE0A2E522F9D083D0820200EF74F71269
:1005F3000248EAFEEBFF12019EE9640170047901EF
:100603008057120156900207EEF0A3EFF09002C359
:10061300E4F0A3F090020204F0A3E4F0A3F0A3F04B
:10062300A3F0900208E0F5838E82A3A3A3A3E0F9CD
:100633001201AA12066AFAA3E0FB1201B0900207A4
:10064300E0F8A3120661FAA3E0FB1201B67A147B69
:10065300011201D412015079007F010202B4E0F5C6
:10066300838882A3A3E02212066FE022900207E0B0
:10067300F8A3E0F583888222C082C0839002C7E09A
:100683000205E874F21202488A088B09890AECFE13
:10069300EDFF120156AA0A9002C2E0F91201DAE94B
:1006A300F50C750D00780C1203B19002C3E0FCA3A6
:1006B300E0FDAA08AB091201E07402120206EE4F34
:1006C300601F1201A4E9FA9002C6E0F83395E0F93D
:1006D300E8C39AF8E99400F98E828F83E8F0A3E9DE
:1006E300F09002C7E4F0120150AA0A9002C2E0F9A6
:1006F3001201DA7F060202B4C082C0839002027440
:1007030001F01201C20205E9C292C280C2F989F95D
:10071300A2F950FC00000000D2920200EFC292D274
:1007230080C2F989F9A2F950FC0000000080E97445
:10073300F7120248E9FEEAFF74B04FF912015CEECA
:10074300C4540F4410F912015C740F5E0207D9C040
:1007530082C08353F3FED28043FD0153F4FBD29254
:1007630043FE0453F37FC28743FD8079A212015CE9
:1007730079A012015C79C812015C794012015C799D
:100783002C12015C792E12015C792F12015C7926FF
:1007930012015C798112015C791A12015C79AF1242
:1007A300015C798812017A120174D083D08202002D
:1007B300EF74F71202487F007E00EFFAEEF91201A0
:1007C3006879001201620EEEC3948440ED0FEFC30B
:1007D300940840E48004F912015C7F010202B474BE
:1007E300F7120248E9FE798112015CEE80E8C082CB
:1007F300C083906189E04460F09061FA7409F090DD
:1008030061B27415F09061AEE4F01201CE7900800C
:1008130011E0F9800DC082C0839002C980F3F0EB30
:10082300A3F0D083D0820200EFC082C08375F005AD
:10083300E9A424D490618F80E8C082C083EA9061E8
:100843007480DBC082C083EA90617280D1C082C0B1
:1008530083800DE5D98A828B83F0A3AA82AB8319A7
:10086300E970F002082575E1EC75E1E30200EFC0E1
:1008730082C0839061A3E0C2E6F0539AFE0208258A
:10088300C082C0839061A3E0D2E6F0439A010208DC
:1008930025C082C083A8A8C2AF9002B4EAF0A3EB3C
:1008A300F0E8A2E792AF020825C082C08379001264
:1008B3000138E9601079011201327900120138E937
:1008C300600312013E7900120132D083D08202000C
:1008D300EFEBC313FBEA13FAEAF8EBF9E824FFFAA8
:1008E300E934FFFBE849601300000000000000004A
:1008F30000000000000000000080DD0200EF74F73C
:10090300120248EAFEEBFFEEF8EFF9E824FFFEE9F6
:1009130034FFFFE84960097AE87B0312019280E71C
:100923007F010202B4C082C08312018C43FE01C264
:100933009043FE02C29143FE10C29443FD02C28162
:1009430053F3FD53FDFD438F0253F5FE53FFFE4367
:10095300F70143F34012014A12016E120150D08392
:10096300D0820200EF43F102120987A89E75FB8033
:1009730075F800E8A2E0E433240F4420F5FC75FA8F
:10098300530200EF43F48043F44043F420229002E7
:10099300B97407F0A37420F0A37419F0A37401F0E1
:1009A30012014412019EE96401700312013E7901B0
:1009B3001201809002B774EFF0A374BEF07AB77B94
:1009C3000212011AE96401700312013E12012C1292
:1009D3000120E960FA7C007D0079017AB67B02127E
:1009E3000126E960EA9002B6E070E479011201861B
:1009F30080DDC082C083E914600B14600C14600DA9
:100A030014600E8014D2908010D291800CD2948006
:100A130008D2819002B37401F0D083D0820200EF38
:100A2300C082C083E914600B14600D14600F14605E
:100A33001180196390018014639002800F639010FA
:100A4300800A6380029002B3E06401F080CBE5C6C4
:100A53005480F853BEFBE59DA2E550FAE59DA2E262
:100A630040F4007401697007744948F5C68005E9CC
:100A7300700288C6A8C6E59E6870FB43BE040200E8
:100A8300EFE9FAE59EA2E6400479018019E97005D1
:100A930053C67F800874016A700343C680A8C6E505
:100AA3009E6870FB79000200EF74F6120248EAF8C0
:100AB300EBF9740A12023CE0FEA3E0FF80188C827B
:100AC3008D83E088828983F0A3A882A9838C828D99
:100AD30083A3AC82AD838E088F09E50824FF1EE54E
:100AE3000934FFFFE508450970D47F020202B4C050
:100AF30082C0837901120186790212018679031279
:100B0300018679041201867A327B0012019880E310
:100B1300E9C39A4002EAF90200EFD2AF0200EFC242
:040B2300AF0200EF2E
:04000005000000D720
:00000001FF
